{
  "contractName": "Election",
  "abi": [
    {
      "constant": true,
      "inputs": [],
      "name": "candidatesCount",
      "outputs": [
        {
          "name": "",
          "type": "uint256"
        }
      ],
      "payable": false,
      "stateMutability": "view",
      "type": "function"
    },
    {
      "constant": true,
      "inputs": [
        {
          "name": "",
          "type": "uint256"
        }
      ],
      "name": "candidates",
      "outputs": [
        {
          "name": "id",
          "type": "uint256"
        },
        {
          "name": "name",
          "type": "string"
        },
        {
          "name": "voteCount",
          "type": "uint256"
        }
      ],
      "payable": false,
      "stateMutability": "view",
      "type": "function"
    },
    {
      "constant": true,
      "inputs": [],
      "name": "candidate",
      "outputs": [
        {
          "name": "",
          "type": "string"
        }
      ],
      "payable": false,
      "stateMutability": "view",
      "type": "function"
    },
    {
      "constant": true,
      "inputs": [
        {
          "name": "",
          "type": "address"
        }
      ],
      "name": "voters",
      "outputs": [
        {
          "name": "",
          "type": "bool"
        }
      ],
      "payable": false,
      "stateMutability": "view",
      "type": "function"
    },
    {
      "inputs": [],
      "payable": false,
      "stateMutability": "nonpayable",
      "type": "constructor"
    },
    {
      "constant": false,
      "inputs": [
        {
          "name": "_candidateId",
          "type": "uint256"
        }
      ],
      "name": "vote",
      "outputs": [],
      "payable": false,
      "stateMutability": "nonpayable",
      "type": "function"
    }
  ],
  "bytecode": "0x608060405234801561001057600080fd5b506100556040518060400160405280601081526020017f53616e64726120416e6e2053616a616e0000000000000000000000000000000081525061009e60201b60201c565b6100996040518060400160405280600f81526020017f5564617961205368616e6b6572204d000000000000000000000000000000000081525061009e60201b60201c565b6101bf565b60026000815480929190600101919050555060405180606001604052806002548152602001828152602001600081525060016000600254815260200190815260200160002060008201518160000155602082015181600101908051906020019061010992919061011a565b506040820151816002015590505050565b828054600181600116156101000203166002900490600052602060002090601f016020900481019282601f1061015b57805160ff1916838001178555610189565b82800160010185558215610189579182015b8281111561018857825182559160200191906001019061016d565b5b509050610196919061019a565b5090565b6101bc91905b808211156101b85760008160009055506001016101a0565b5090565b90565b6105b1806101ce6000396000f3fe608060405234801561001057600080fd5b50600436106100575760003560e01c80630121b93f1461005c5780632d35a8a21461008a5780633477ee2e146100a85780636c8381f81461015d578063a3ec138d146101e0575b600080fd5b6100886004803603602081101561007257600080fd5b810190808035906020019092919050505061023c565b005b6100926103ff565b6040518082815260200191505060405180910390f35b6100d4600480360360208110156100be57600080fd5b8101908080359060200190929190505050610405565b6040518084815260200180602001838152602001828103825284818151815260200191508051906020019080838360005b83811015610120578082015181840152602081019050610105565b50505050905090810190601f16801561014d5780820380516001836020036101000a031916815260200191505b5094505050505060405180910390f35b6101656104c7565b6040518080602001828103825283818151815260200191508051906020019080838360005b838110156101a557808201518184015260208101905061018a565b50505050905090810190601f1680156101d25780820380516001836020036101000a031916815260200191505b509250505060405180910390f35b610222600480360360208110156101f657600080fd5b81019080803573ffffffffffffffffffffffffffffffffffffffff169060200190929190505050610565565b604051808215151515815260200191505060405180910390f35b6000803373ffffffffffffffffffffffffffffffffffffffff1673ffffffffffffffffffffffffffffffffffffffff16815260200190815260200160002060009054906101000a900460ff16156102fb576040517f08c379a00000000000000000000000000000000000000000000000000000000081526004018080602001828103825260188152602001807f55736572206861766520766f746564206265666f72652121000000000000000081525060200191505060405180910390fd5b60008111801561030d57506002548111155b61037f576040517f08c379a00000000000000000000000000000000000000000000000000000000081526004018080602001828103825260118152602001807f496e76616c69642063616e64696461746500000000000000000000000000000081525060200191505060405180910390fd5b60016000803373ffffffffffffffffffffffffffffffffffffffff1673ffffffffffffffffffffffffffffffffffffffff16815260200190815260200160002060006101000a81548160ff021916908315150217905550600160008281526020019081526020016000206002016000815480929190600101919050555050565b60025481565b6001602052806000526040600020600091509050806000015490806001018054600181600116156101000203166002900480601f0160208091040260200160405190810160405280929190818152602001828054600181600116156101000203166002900480156104b75780601f1061048c576101008083540402835291602001916104b7565b820191906000526020600020905b81548152906001019060200180831161049a57829003601f168201915b5050505050908060020154905083565b60038054600181600116156101000203166002900480601f01602080910402602001604051908101604052809291908181526020018280546001816001161561010002031660029004801561055d5780601f106105325761010080835404028352916020019161055d565b820191906000526020600020905b81548152906001019060200180831161054057829003601f168201915b505050505081565b60006020528060005260406000206000915054906101000a900460ff168156fea165627a7a72305820be4d498488706f1e9c218c26eec4c3387d031304139da5dd1b893c23210fa7810029",
  "source": "pragma solidity >=0.4.22  <0.7.0;\n\n//declare contract\ncontract Election {\n    //creating smoke test\n    //model a candidate\n    struct Candidate {\n        uint id;\n        string name;\n        uint voteCount;\n    }\n    //store accounts that have voted\n    mapping(address => bool) public voters;\n    //store candidate\n    //fetch candidate\n    mapping(uint =>Candidate) public candidates; //mappingis an associative array r a ahsh associativee key value pairs with one another\n    //store candidates Count\n    uint public candidatesCount;\n    string public candidate;\n    //constructor\n    constructor () public {\n        addCandidate(\"Sandra Ann Sajan\");\n        addCandidate(\"Udaya Shanker M\");\n    }\n    /*function election () public {\n        //candidate = \"candidate1\";//candidate is a state variable and it is accessible inside contract\n        addCandidate(\"Candidate 1\");\n        addCandidate(\"Candidate 2\");\n    }*/\n    function addCandidate (string memory _name) private { // private because not too be accessible by public interface of contract\n        candidatesCount ++;\n        candidates[candidatesCount] = Candidate({id: candidatesCount, name: _name, voteCount:0} );\n    }\n    function vote (uint _candidateId) public {\n        //user haven't voted before\n        require(!voters[msg.sender],'User have voted before!!');\n        //valid candidate\n        require(_candidateId > 0 && _candidateId <= candidatesCount,'Invalid candidate');\n        voters[msg.sender] = true;\n        candidates[_candidateId].voteCount ++;\n    }\n}\n\n//Election.deployed().then(function(instance) { app = instance });\n//web3.eth.getAccounts().then(function(acc) { accounts = acc });\n//app.vote(1, {from: accounts[1]});\n",
  "sourcePath": "C:/Users/lette/OneDrive/Documents/blockchain/Blockchain-based-E-voting-master/blockchain/contracts/Election.sol",
  "compiler": {
    "name": "solc",
    "version": "0.5.8+commit.23d335f2.Emscripten.clang"
  },
  "schemaVersion": "3.0.11",
  "updatedAt": "2020-02-08T10:55:47.150Z",
  "devdoc": {
    "methods": {}
  },
  "userdoc": {
    "methods": {}
  }
}